:020000040800F2
:10000000005000203D950008893800088B38000812
:100010008D3800088F380008913800080000000073
:1000200000000000000000000000000093380008FD
:10003000953800080000000097380008993800083B
:100040008595000885950008859500088595000828
:100050008595000885950008859500088595000818
:100060008595000885950008859500088595000808
:10007000859500088595000885950008A138000839
:10008000B138000885950008859500088595000819
:10009000C1380008859500088595000885950008F9
:1000A00085950008859500088595000885950008C8
:1000B00085950008D13800088595000885950008C9
:1000C00085950008859500088595000885950008A8
:1000D0008595000885950008859500088595000898
:1000E00085950008859500088595000800000000AA
:1000F0000000000000000000000000000000000000
:0C01000000000000000000005FF808F1A3
:10010C0010F8012B11F8013B012A28BF9A42F7D0B5
:10011C00D01A7047034613F8012B002AFBD1181A8A
:10012C00013870474FF0FF0C1CEAD0521EBF1CEA7E
:10013C00D15392EA0C0F93EA0C0F6FD01A4480EA59
:10014C00010C400218BF5FEA41211ED04FF0006342
:10015C0043EA501043EA5111A0FB01310CF000406E
:10016C00B1F5000F3EBF490041EAD3715B0040EA94
:10017C00010062F17F02FD2A1DD8B3F1004F40EB64
:10018C00C25008BF20F00100704790F0000F0CF037
:10019C00004C08BF49024CEA502040EA51207F3AFB
:1001AC00C2BFD2F1FF0340EAC250704740F40000D6
:1001BC004FF00003013A5DDC12F1190FDCBF00F0C7
:1001CC0000407047C2F10002410021FA02F1C2F175
:1001DC00200200FA02FC5FEA310040F1000053EA11
:1001EC004C0308BF20EADC70704792F0000F00F05F
:1001FC00004C02BF400010F4000F013AF9D040EA65
:10020C000C0093F0000F01F0004C02BF490011F4F8
:10021C00000F013BF9D041EA0C018FE70CEAD153F6
:10022C0092EA0C0F18BF93EA0C0F0AD030F0004C76
:10023C0018BF31F0004CD8D180EA010000F000402A
:10024C00704790F0000F17BF90F0004F084691F0E8
:10025C00000F91F0004F14D092EA0C0F01D1420222
:10026C000FD193EA0C0F03D14B0218BF084608D1EB
:10027C0080EA010000F0004040F0FE4040F4000035
:10028C00704740F0FE4040F44000704780F0004062
:10029C0002E000BF81F0004142001FBF5FEA410352
:1002AC0092EA030F7FEA226C7FEA236C6AD04FEA52
:1002BC001262D2EB1363C1BFD21841404840414097
:1002CC00B8BF5B42192B88BF704710F0004F40F449
:1002DC00000020F07F4018BF404211F0004F41F465
:1002EC00000121F07F4118BF494292EA030F3FD031
:1002FC00A2F1010241FA03FC10EB0C00C3F1200344
:10030C0001FA03F100F0004302D5494260EB4000D2
:10031C00B0F5000F13D3B0F1807F06D340084FEA3D
:10032C00310102F10102FE2A51D2B1F1004F40EB32
:10033C00C25008BF20F0010040EA0300704749009A
:10034C0040EB0000013A28BFB0F5000FEDD2B0FA37
:10035C0080FCACF1080CB2EB0C0200FA0CF0AABF5A
:10036C0000EBC25052421843BCBFD04018437047F8
:10037C0092F0000F81F4000106BF80F400000132FE
:10038C00013BB5E74FEA41037FEA226C18BF7FEAD5
:10039C00236C21D092EA030F04D092F0000F08BF17
:1003AC000846704790EA010F1CBF0020704712F0FE
:1003BC007F4F04D1400028BF40F00040704712F13D
:1003CC0000723CBF00F50000704700F0004343F0A2
:1003DC00FE4040F4000070477FEA226216BF0846D8
:1003EC007FEA23630146420206BF5FEA412390EA9B
:1003FC00010F40F4800070474FF0000304E000BF91
:10040C0010F0004348BF40425FEA000C08BF704741
:10041C0043F0964301464FF000001CE050EA010205
:10042C0008BF70474FF000030AE000BF50EA01021A
:10043C0008BF704711F0004302D5404261EB410107
:10044C005FEA010C02BF84460146002043F0B6432C
:10045C0008BFA3F18053A3F50003BCFA8CF2083A51
:10046C00A3EBC25310DB01FA02FC634400FA02FC5A
:10047C00C2F12002BCF1004F20FA02F243EB020061
:10048C0008BF20F00100704702F1200201FA02FCC3
:10049C00C2F1200250EA4C0021FA02F243EB0200B6
:1004AC0008BF20EADC70704742000ED2B2F1FE4F5A
:1004BC000BD34FF09E03B3EB126209D44FEA002327
:1004CC0043F0004323FA02F070474FF000007047EE
:1004DC0012F1610F01D1420202D14FF0FF3070478F
:1004EC004FF00000704700BF0348044B834202D01A
:1004FC00034B03B1184770470C0300200C0300207A
:10050C00000000000548064B1B1AD90F01EBA30194
:10051C00491002D0034B03B1184770470C0300205D
:10052C000C0300200000000010B5064C237843B9E2
:10053C00FFF7DAFF044B13B10448AFF3008001233B
:10054C00237010BD0C03002000000000B4A00008B4
:10055C0008B5054B1BB105490548AFF30080BDE854
:10056C000840FFF7CFBF00BF0000000010030020C1
:10057C00B4A000080346007B28B99A68891A5B6806
:10058C00994202D87047002070470120FAE708B55D
:10059C0003685B68984708BD30B583B005460C46C8
:1005AC008968FFF7E7FF80B92B681B6820469847DE
:1005BC00ADF8040000209DF8043063F307009DF8AB
:1005CC00053063F30F2003B030BD00238DF80430E9
:1005DC008DF80530EEE781607047C2688068824212
:1005EC0034BF00200120704708B50B468168994242
:1005FC0000D808BD4068114600EB0310FFF7EBFF75
:10060C00F7E710B582B00446ADF804109DF804303D
:10061C003BB12046FFF7E1FF08B10023237402B081
:10062C0010BDC1680131C160FFF7DEFFF1E700B515
:10063C0085B00DF1100E0EE90E000021C1600123F2
:10064C000374019B43618261039AFFF7CDFF05B0F0
:10065C005DF804FB30B587B00023ADF8103043696A
:10066C000193836902930391037C73B98DF8143061
:10067C008DF8153000209DF8143063F307009DF8B9
:10068C00153063F30F2007B030BD04460D464368A8
:10069C00C06801A903EB0010FFF77EFFADF8100056
:1006AC002A4604992046FFF7ACFFBDF81030ADF890
:1006BC001430DFE70068B0FA80F04009704710B5DD
:1006CC0084B013460022019202920392026801EB5D
:1006DC00410102EB810CDCF808409A68944211D27B
:1006EC000DF1040E9CE807008EE80700013403941A
:1006FC0093E807008CE807009EE8070083E80700F2
:10070C0004B010BD01329A60FAE70346084603E0D4
:10071C000133652101FB00201A78002AF8D17047BB
:10072C0008B50968FFF7ECFCB0FA80F0400908BD89
:10073C0070B505460E4614460021304609F084F883
:10074C00034BA3FB0434E4082E606C60284670BD98
:10075C00ABAAAAAA70B588B0064601A880E80E001C
:10076C0000210198FFF7D1FF7468B0FBF4F204FB91
:10077C00120400230393356804EB440305EB830553
:10078C002846FFF797FF98B901AB93E8070008AB31
:10079C0003E907007368A34212D905AA2146304623
:1007AC00FFF78DFF05A8FFF785FF80B90134F1E74E
:1007BC0001AB93E8070085E80700104608B070BD50
:1007CC0005A8FFF777FF80F00100C0B2F6E7002024
:1007DC00F4E72DE9F04105460E4600213046FFF7BF
:1007EC0094FF6F68B0FBF7F307FB1304D5F8008098
:1007FC0004EB440508EB850529463046FFF790FFCE
:10080C0070B90134A7420AD904EB440508EB8505FD
:10081C0029463046FFF784FF10B90134F2E7002572
:10082C002846BDE8F08108B10020704701207047D0
:10083C00F0B587B005460E46144F6C46F0221449AD
:10084C002046FFF775FF94E8030087E803000024B7
:10085C00274614E003AB0022039204920592C4EBEA
:10086C00C40205EB820155F82220039204910ECBB1
:10087C000648FFF76FFF3843C7B20134E4B2B44205
:10088C00E8D3381E18BF012007B0F0BD2C0800209B
:10089C003C07002010B504460448FFF79AFF18B136
:1008AC0043682360012010BD0020FCE72C080020C9
:1008BC0010B50B4614460B4A106021461846FFF73C
:1008CC00B7FF60B98446084B1C60084B00221A60C5
:1008DC00074B084A07CA83E80700604610BD4FF073
:1008EC00010CFAE7340800202C0300202803002018
:1008FC0030030020CCA0000830B585B00C46002396
:10090C00009301466846FFF7C5FF68B1009D01944E
:10091C00064B0293064B1B689847039004AB13E9F4
:10092C000E002846FFF783FE05B030BD30030020D3
:10093C003408002030B585B0002401E00134E4B265
:10094C00132C17D804EB44020B4B03EB820393E8F4
:10095C00070004AB03E907000D460846FFF763FFE9
:10096C000028EBD1054B1B68984701462846FFF73A
:10097C0071FEE3E705B030BD3C07002034080020D1
:10098C0000B583B0084B1B68002108489847012329
:10099C008DF8043000208DF8050063F3070020F477
:1009AC007F4003B05DF804FB38090020D4A1000897
:1009BC0008B5044801F0A8FB08B9012008BD0020C7
:1009CC00FCE700BFE0A1000808B50421092001F0F4
:1009DC00A1FB08BD00B583B012210A4801F0E6FC6A
:1009EC0001F074FBFFF7CCFFADF8040000209DF87C
:1009FC00043063F307009DF8053063F30F2003B058
:100A0C005DF804FBE8A1000810B582B01D4801F0A8
:100A1C0057FB01F0E9FC80B901238DF80430002369
:100A2C008DF8053000209DF8043063F307009DF825
:100A3C00053063F30F2002B010BD134B592211493E
:100A4C00124801F07FFCFFF7B3FF80B9FFF7BCFF42
:100A5C00044688B101F03AFB0D4B1B68002120467F
:100A6C00984700238DF804308DF80530DAE7FFF74E
:100A7C00B1FFADF80400D5E7FFF7ACFFADF804000B
:100A8C00D0E700BF38080020FCA1000854A20008E1
:100A9C003809002000B583B00F210F4801F09CFCF1
:100AAC0040B1022806D000238DF8043001238DF8C4
:100ABC00053004E000238DF804308DF8053000205B
:100ACC009DF8043063F307009DF8053063F30F20A5
:100ADC0003B05DF804FB00BF3808002010B40346D7
:100AEC000F4A11600F4C104A92E8030084E803008F
:100AFC000E4C083292E8030084E8030000221A60CE
:100B0C005A609A60DA601A615A619A61084A1A60EE
:100B1C00084A5A6002229A60184610BC704700BFFF
:100B2C003809002044090020D8A000083C09002006
:100B3C00D4A1000800000020402806D0B0F5807F2A
:100B4C0001D0012070470020704700207047000042
:100B5C0008B5044801F0D8FA08B9012008BD0020F6
:100B6C00FCE700BF68A2000870B506460024082CFC
:100B7C0018D804EB4400C0B212300321C0B201F00B
:100B8C00C9FA08F00BFE85B265B12846FFF7D4FF11
:100B9C0058B906EB4403DD80337E013333760134E0
:100BAC00E4B2E4E70120B08070BD0020FCE7000057
:100BBC0000B583B012210C4801F0F8FB01F086FA65
:100BCC000A4B1B6800210A48984700238DF8043013
:100BDC0001228DF80520184663F3070062F30F20FD
:100BEC0003B05DF804FB00BFE8A100087C090020FD
:100BFC00D4A1000810B5002404E0204601F06EF9E1
:100C0C000134E4B200F0B8FF83889C42F5D310BDE8
:100C1C0000B589B001F0E8FB88B901238DF81C30D0
:100C2C0000238DF81D3000209DF81C3063F3070065
:100C3C009DF81D3063F30F2009B05DF804FB1F48CD
:100C4C0001F03EFAFFF784FF40BB002300930193B1
:100C5C00029303930493059306936846FFF784FF6E
:100C6C0008B3174B68221549164801F06BFB684610
:100C7C0000F08CFFE0B9FFF7BDFF01F0A3F90F21E5
:100C8C00114801F093FB114B1B6800211048984749
:100C9C0000238DF81C308DF81D30C4E7FFF788FF5A
:100CAC00ADF81C00BFE7FFF783FFADF81C00BAE7F7
:100CBC00FFF77EFFADF81C00B5E700BF4C09002024
:100CCC0078A20008CCA20008E0A200087C09002051
:100CDC00D4A1000810B582B00F21114801F066FBB9
:100CEC0004462F210F4801F077FB044314F0FF0F4B
:100CFC000FD100238DF804308DF8053000209DF8BD
:100D0C00043063F307009DF8053063F30F2002B045
:100D1C0010BD00238DF8043001238DF80530EDE76C
:100D2C00E0A200084C09002010B403460F4A1160E1
:100D3C000F4C104A92E8030084E803000E4C083272
:100D4C0092E8030084E8030000221A605A609A605B
:100D5C00DA601A615A619A61084A1A60084A5A6044
:100D6C0002229A60184610BC704700BF7C09002014
:100D7C0088090020E8A0000880090020F0A20008E3
:100D8C002000002082B08268044B1A6000238DF88A
:100D9C0004308DF80530184602B0704790090020D9
:100DAC0000B583B08268124B1B68D31AB3F5FA7F77
:100DBC0016D30F4B1A600F4B1B68984701238DF805
:100DCC00043000238DF8053000209DF8043063F3C7
:100DDC0007009DF8053063F30F2003B05DF804FBAA
:100DEC0001238DF8043000238DF80530ECE700BFAB
:100DFC0090090020A409002010B403460F4A11608A
:100E0C000F4C104A92E8030084E803000E4C0832A1
:100E1C0092E8030084E8030000221A605A609A608A
:100E2C00DA601A615A619A61084A1A60084A5A6073
:100E3C0002229A60184610BC704700BFA40900201B
:100E4C009C090020F8A0000894090020F8A20008D2
:100E5C004000002010B582B00A4C236800210A48DB
:100E6C0098472368002109489847236800210848BF
:100E7C00984700238DF804308DF80530184602B0E1
:100E8C0010BD00BFB0090020D4A1000804A30008C5
:100E9C00F8A2000803460B4A11600B4A0B4903C920
:100EAC0082E8030000221A605A609A60DA601A61C4
:100EBC005A619A61064A1A60064A5A6001229A607F
:100ECC0018467047B0090020A809002008A10008A6
:100EDC000CA300086000002008B5034B00221A6028
:100EEC00FFF755FB08BD00BFB409002010B582B058
:100EFC00044600F041FEA368114A12689B1A02686E
:100F0C00934210D201238DF8043000238DF8053064
:100F1C0000209DF8043063F307009DF8053063F35F
:100F2C000F2002B010BD01F09FF8A268044B1A60AC
:100F3C0001238DF8043000238DF80530E8E700BF5D
:100F4C00B409002010B582B0044601F087F8A268FD
:100F5C00044B1A6000238DF804308DF805301846C8
:100F6C0002B010BDB409002010B403460E4C0F4A59
:100F7C0092E8030084E803000D4C083292E8030069
:100F8C0084E8030000221A605A609A60DA601A61E1
:100F9C005A619A61074A1A60074A5A6002229A609B
:100FAC00184610BC704700BFC009002010A10008F3
:100FBC00B809002004A300087000002008B50448FC
:100FCC0001F0A2F808B9012008BD0020FCE700BF21
:100FDC0014A3000808B50321092001F09BF801F0C7
:100FEC00C9F808BD00B583B012210C4801F0DEF938
:100FFC0001F06CF80A4B1B6800210A489847002343
:10100C008DF8043001228DF80520184663F3070093
:10101C0062F30F2003B05DF804FB00BFE8A10008E9
:10102C00E4090020D4A1000800B583B001F0DCF97C
:10103C0088B901238DF8043000238DF80530002089
:10104C009DF8043063F307009DF8053063F30F201F
:10105C0003B05DF804FB144801F032F8FFF7AEFF63
:10106C00B8B9124B5E221049114801F06BF9FFF729
:10107C00B1FF98B10F210F4801F098F90E4B1B6886
:10108C0000210E48984700238DF804308DF8053068
:10109C00D5E7FFF7A7FFADF80400D0E7FFF7A2FFF5
:1010AC00ADF80400CBE700BFC80900201CA3000862
:1010BC006CA30008E0A20008E4090020D4A10008F9
:1010CC0010B582B00F21114801F070F904460E21C1
:1010DC000F4801F081F9044314F0FF0F0FD10023E6
:1010EC008DF804308DF8053000209DF8043063F342
:1010FC0007009DF8053063F30F2002B010BD0023EC
:10110C008DF8043001238DF80530EDE7E0A20008DE
:10111C00C809002010B403460F4A11600F4C104A46
:10112C0092E8030084E803000E4C083292E80300B6
:10113C0084E8030000221A605A609A60DA601A612F
:10114C005A619A61084A1A60084A5A6002229A60E7
:10115C00184610BC704700BFE4090020F0090020BD
:10116C0020A10008E80900207CA3000890000020C2
:10117C0000B583B019210C4801F018F900F0A6FF56
:10118C000A4B1B6800210A48984700238DF804304D
:10119C0002228DF80520184663F3070062F30F2036
:1011AC0003B05DF804FB00BF84A30008F80900201D
:1011BC00D4A1000810B582B000F0FEFFB8B100F069
:1011CC00DBFC037EB3B10D4B3F2218210C4801F020
:1011DC008FF80C4B1C6800F0E3FF0021A0470023A4
:1011EC008DF804308DF80530184602B010BDFFF7AD
:1011FC00BFFFE4E7FFF7BCFFE5E700BFA0A30008D3
:10120C00F8A30008F809002003460B4A11600B4AAA
:10121C000B4903C982E8030000221A605A609A60E5
:10122C00DA601A615A619A61064A1A60064A5A6073
:10123C0001229A6018467047F8090020FC0900202A
:10124C0030A1000814A40008B000002038B50C48E8
:10125C0000F05AFF10B10024204638BD044609495D
:10126C00142000F039FF05460028F5D10649272047
:10127C0000F032FF08B90124EEE72C46ECE700BF82
:10128C001CA400082CA4000838A4000808B50121EF
:10129C0000F040FF08F082FAC0B208BD30B583B050
:1012AC002120FFF7F3FF05462220FFF7EFFF04464E
:1012BC002320FFF7EBFF8DF804508DF805408DF8D7
:1012CC0006000020EBB263F30700E3B263F30F20D8
:1012DC009DF8063063F3174003B030BD08B5032109
:1012EC00372000F017FF08F059FA80B208BD10B58E
:1012FC0082B01120FFF7CAFF0446FFF7CFFF8DF82D
:10130C000400C0F307238DF80530C0F307438DF8B4
:10131C000630FFF7E3FF082C0AD83F2801D900203C
:10132C0007E0019AC1B2204600F03AFD012000E02E
:10133C00002002B010BD000000B583B012210C4893
:10134C0001F034F800F0C2FE0A4B1B6800210A4879
:10135C00984700238DF8043001228DF8052018469B
:10136C0063F3070062F30F2003B05DF804FB00BFCA
:10137C00E8A100087C0A0020D4A1000800B583B0C5
:10138C0001F032F888B901238DF8043000238DF870
:10139C00053000209DF8043063F307009DF80530FC
:1013AC0063F30F2003B05DF804FB144800F088FED3
:1013BC00FFF74CFFB8B9124B62221049114800F0EC
:1013CC00C1FFFFF794FF98B10F210F4800F0EEFF1B
:1013DC000E4B1B6800210E48984700238DF80430F3
:1013EC008DF80530D5E7FFF7A7FFADF80400D0E77F
:1013FC00FFF7A2FFADF80400CBE700BF040A002002
:10140C0048A4000898A40008E0A200087C0A002068
:10141C00D4A1000810B582B00F21114800F0C6FF0E
:10142C0004463C210F4800F0D7FF044314F0FF0F93
:10143C000FD100238DF804308DF8053000209DF875
:10144C00043063F307009DF8053063F30F2002B0FE
:10145C0010BD00238DF8043001238DF80530EDE725
:10146C00E0A20008040A002010B403460F4A1160E1
:10147C000F4C104A92E8030084E803000E4C08322B
:10148C0092E8030084E8030000221A605A609A6014
:10149C00DA601A615A619A61084A1A60084A5A60FD
:1014AC0002229A60184610BC704700BF7C0A0020CC
:1014BC00880A002038A10008800A0020ACA400088B
:1014CC00C000002000B583B000F084FC0F21084858
:1014DC0000F06CFF074B1B6800210748984700235E
:1014EC008DF804308DF80530184603B05DF804FB18
:1014FC00E0A20008900A0020D4A1000803460B4A81
:10150C0011600B4A0B4903C982E8030000221A60E0
:10151C005A609A60DA601A615A619A61064A1A60D6
:10152C00064A5A6001229A6018467047900A0020B9
:10153C00940A002048A10008B0A40008E000002094
:10154C0010B5084800F0E0FD10B90124204610BD8C
:10155C0004460549172000F0BFFD0028F6D00024F2
:10156C00F4E700BFB8A40008C0A4000830B589B0E7
:10157C000321112000F0CEFD08F010F984B20821EF
:10158C00292000F0C7FD08F009F9B4F5177F2DD814
:10159C000546184B984201D9002028E000F0ECFADF
:1015AC0000230193029303930493059306930793EB
:1015BC000195ADF80840037E8DF81C30D0F806403C
:1015CC00D0F80A10D0F80E20D0F81230CDF80A401E
:1015DC00CDF80E10CDF81220CDF81630C38AADF828
:1015EC001A3001A800F0D2FA012000E0002009B066
:1015FC0030BD00BF005C260500B583B012210C483D
:10160C0000F0D4FE00F062FD0A4B1B6800210A4872
:10161C00984700238DF8043001228DF805201846D8
:10162C0063F3070062F30F2003B05DF804FB00BF07
:10163C00E8A10008DC0A0020D4A1000800B583B0A2
:10164C0000F0D2FE88B901238DF8043000238DF808
:10165C00053000209DF8043063F307009DF8053039
:10166C0063F30F2003B05DF804FB104800F028FD75
:10167C00FFF766FF78B9FFF779FF88B100F026FD18
:10168C000B4B1B6800210B48984700238DF8043046
:10169C008DF80530DDE7FFF7AFFFADF80400D8E7B4
:1016AC00FFF7AAFFADF80400D3E700BF9C0A0020A7
:1016BC00DC0A0020D0A4000810B582B00F2111481C
:1016CC0000F074FE044633210F4800F085FE0443FD
:1016DC0014F0FF0F0FD100238DF804308DF8053076
:1016EC0000209DF8043063F307009DF8053063F388
:1016FC000F2002B010BD00238DF8043001238DF8AB
:10170C000530EDE7E0A200089C0A002010B4034667
:10171C000F4A11600F4C104A92E8030084E8030052
:10172C000E4C083292E8030084E8030000221A6091
:10173C005A609A60DA601A615A619A61084A1A60B2
:10174C00084A5A6002229A60184610BC704700BFC3
:10175C00DC0A0020E80A002050A10008E00A002062
:10176C00DCA40008F000002000B583B0084B1B6817
:10177C0000210848984701238DF8043000208DF88B
:10178C00050063F3070020F47F4003B05DF804FB11
:10179C005C150020D0A4000808B5034800F0B4FC88
:1017AC0080F00100C0B208BDB8A4000838B500F044
:1017BC00E3F9047E084D22462946084800F069FDED
:1017CC0004EB440462012946054B188800F06AFBBF
:1017DC00B0FA80F0400938BDF40A00205E0E0020FB
:1017EC00F00A002000B583B012210D4800F0DEFD98
:1017FC0000F06CFC0B4B1B6800210B489847002336
:10180C000A4A13808DF8043001228DF80520184601
:10181C0063F3070062F30F2003B05DF804FB00BF15
:10182C00E8A100085C150020D4A10008F00A0020F3
:10183C0010B582B000F0D8FD80B901238DF80430CA
:10184C0000238DF8053000209DF8043063F3070069
:10185C009DF8053063F30F2002B010BD1B4800F05B
:10186C002FFCFFF799FF88B9FFF7A0FF98B1184B31
:10187C001C880134A4B21C8000F07EF983889C4241
:10188C000ED2FFF771FFADF80400DCE7FFF7AAFFFB
:10189C00ADF80400D7E7FFF7A5FFADF80400D2E7D9
:1018AC0000240B4B1C800F210A4800F07FFD0A4BD3
:1018BC001B6821460948984700F0B0FB00F082FBFA
:1018CC008DF804408DF80540BDE700BF540E002094
:1018DC00F00A0020E0A200085C150020D4A100084A
:1018EC0010B582B00F21164800F060FD044600F0E0
:1018FC0043F9017E01EB410189010C3189B2114898
:10190C0000F06AFD044314F0FF0F10D000238DF893
:10191C00043001238DF8053000209DF8043063F36A
:10192C0007009DF8053063F30F2002B010BD0120B5
:10193C0000F0C0FB00238DF804308DF80530EBE788
:10194C00E0A20008540E002010B403460F4A1160A8
:10195C000F4C104A92E8030084E803000E4C083246
:10196C0092E8030084E8030000221A605A609A602F
:10197C00DA601A615A619A61084A1A60084A5A6018
:10198C0002229A60184610BC704700BF5C150020FC
:10199C006815002060A1000860150020D0A4000884
:1019AC001001002010B588B000F090F900F012FA88
:1019BC0000240094019402940394049405940694D6
:1019CC00684600F0E3F80F21074800F0EFFC074BE6
:1019DC001B682146064898478DF81C408DF81D4021
:1019EC00204608B010BD00BFE0A200087015002012
:1019FC00D4A1000803460B4A11600B4A0B4903C9DA
:101A0C0082E8030000221A605A609A60DA601A6158
:101A1C005A619A61064A1A60064A5A6001229A6013
:101A2C0018467047701500207415002070A100082E
:101A3C00E0A4000830010020074A00231360536023
:101A4C009360D360054A136053609360D360136155
:101A5C0053619361704700BF981500207C150020DE
:101A6C0008B5054B1B78AA2B03D0FFF7E5FF012027
:101A7C0008BD0020FCE700BF981500200023084A91
:101A8C001376082B0BD8064A02EB4302D28832B1EC
:101A9C0003490A7E01320A760133DBB2F1E7704763
:101AAC007C15002008B50F4BD3F80100B3F80510D6
:101ABC000D4A0023136053609360D360136153612C
:101ACC0093611060918008E0064A1A44D179064A65
:101ADC0002EB4302D1800133DBB2082BF4D9FFF7C0
:101AEC00CDFF08BD981500207C15002010B50D4BBE
:101AFC001B788BB10C4B5B680C489847094B002248
:101B0C001A70044648B9FFF7ABFF40B9FFF7CAFF9C
:101B1C00044B00221A7000E00024204610BD022461
:101B2C00FBE700BFA8150020AC150020981500207D
:101B3C0082B06B4683E803000B4A93E8030082E80B
:101B4C0003000A4B01221A70094A002313605360E8
:101B5C009360D360074A136053609360D360136142
:101B6C005361936102B07047AC150020A81500209A
:101B7C00981500207C15002008B5FFF7B7FF08B9B1
:101B8C00014808BD0020FCE77C15002010B5046856
:101B9C008188104A0023136053609360D3604FF028
:101BAC00AA0C82F800C0C2F80140A2F8051007E0A8
:101BBC0000EB43029179074A1A44D1710133DBB22D
:101BCC00082BF5D9FFF76EFF034B1B6801489847AC
:101BDC0010BD00BF98150020AC1500200023B3F5F4
:101BEC00107F22D210B5114901EB43014A78887855
:101BFC0000F00F0142EA01220D4C04EB83014FEA85
:101C0C00122EC2F3031C02F00F02000914BF0120B4
:101C1C00002004F823E081F801C08A70C8700133F9
:101C2C009BB2B3F5107FDED310BD7047B81E0020F9
:101C3C00B8150020092803D8402903D80020704784
:101C4C00012070470120704782B001929DF804304A
:101C5C001B0203F470639DF80520120102F0F002E0
:101C6C0013439DF806C00CF00F0C01EB8011094AD0
:101C7C0002EB410243EA0C035370917821F00F01FF
:101C8C0041EA13239370DBB2012161F307139370C4
:101C9C0002B07047B81E002000B583B001929DF8C9
:101CAC0004E09DF805C09DF80620074B01EB801160
:101CBC0003F821E003EB810383F801C09A70012241
:101CCC00DA7003B05DF804FBB815002008B540F2DB
:101CDC0081420021064807F0B7FD4FF41062002145
:101CEC00044807F0B1FD044B01221A7008BD00BF77
:101CFC00B81E0020B8150020B415002000B583B024
:101D0C006B4683E80300084A93E8030082E803006B
:101D1C00FFF7DCFF054B01221A70054B00221A70ED
:101D2C0003B05DF804FB00BF3C230020B515002078
:101D3C00B415002008B5054B1B78552B03D0FFF7C5
:101D4C00C5FF012008BD0020FCE700BFB81E002025
:101D5C0010B50B4B1B7873B10A4B5B680A4898475C
:101D6C00044648B9FFF7E6FF40B9FFF737FF044BCD
:101D7C0000221A7000E00024204610BD0224FBE76C
:101D8C00B51500203C230020B81E002008B5FFF735
:101D9C00DFFF08B9014808BD0020FCE7B81500209A
:101DAC0030B583B004460D460192FFF743FF08B1EE
:101DBC0003B030BD019A29462046FFF745FF019A32
:101DCC0029462046FFF768FF014B01221A70EFE706
:101DDC00B415002008B5094B1B7853B1084855239E
:101DEC000370084B1B68984728B9044B00221A70E3
:101DFC0008BD0020FCE70120FAE700BFB415002065
:101E0C00B81E00203C230020B0F5177F01D800201D
:101E1C007047012070470000034B1B78992B01D0B1
:101E2C000120704700207047A426002082B06B462A
:101E3C0083E80300074A93E8030082E80300064B9B
:101E4C0000221A605A6099221A70044A5A6002B031
:101E5C00704700BFAC260020A4260020442300209D
:101E6C0070B504460E461546FFF7CEFF80B90A4BF7
:101E7C005B680A49204698470446FFF7CDFF08B136
:101E8C00012406E02A460649304607F09BFB00E099
:101E9C000124204670BD00BFAC260020A4260020E3
:101EAC004423002070B506460C461546FFF7ACFFE0
:101EBC0008B1012070BD2A462146054807F082FB77
:101ECC00044999230B70044B1B6830469847F1E783
:101EDC0044230020A4260020AC26002010B5044684
:101EEC004FF458720021044807F0AEFC034B1B68FA
:101EFC0003492046984710BD44230020AC260020FF
:101F0C00A4260020034A1168034B1868106019605E
:101F1C00704700BFC0260020BC26002008B50D4B22
:101F2C001B689BB11A8959680B4B1888FFF798FFEF
:101F3C0070B9094A138801339BB21380074A12887F
:101F4C00934202D3044B00221A8008BD0220FCE706
:101F5C000220FAE7BC260020B6260020B826002076
:101F6C0070B584B0FFF712FF0646002503951CE000
:101F7C000134E4B23F2C16D804EB851356F8230039
:101F8C0003909DF80F30002BF2D0ADF80000030C3D
:101F9C008DF80230E30804F0070229460748006870
:101FAC0000F071FDE4E70135EDB2054B1B78AB4257
:101FBC0001D90024DEE704B070BD00BFBC260020B0
:101FCC00BA260020F8B5FFF7D7FDE8B10446027E2B
:101FDC000E4B1A7082880E4B1A800E4F386800F028
:101FEC003BFD0D4D286800F037FDA61D3146207EC7
:101FFC0000F07CFD38603146207E00F077FD2860D3
:10200C00FFF78CFFFFF7ACFFF8BD00BFBA2600202E
:10201C00B8260020C0260020BC26002008B5094B9D
:10202C00186800F019FD084B186800F015FD002326
:10203C00064A1370064A1380064A1380064A137028
:10204C0008BD00BFC0260020BC260020BA260020F8
:10205C00B8260020B6260020B426002008B5FFF7CD
:10206C00DDFFFFF7AFFF08BD10B50F4B1B681B7CE6
:10207C000E4A1268127C134312D10D4B1B780BB114
:10208C0000240EE0FFF73EFF074B186800F068FDD8
:10209C000446FFF743FF0443E4B2FFF761FF00E09F
:1020AC000124204610BD00BFC0260020BC26002005
:1020BC00B4260020014B1870704700BFB4260020D6
:1020CC00014B1860704700BFC4270020014B002251
:1020DC001A607047C427002038B50A4B1D6865B1DB
:1020EC000C4605440846FEF715F8024621462846DC
:1020FC0007F09AFB18B1002038BD0020FCE7012046
:10210C00FAE700BFC427002008B501460220FFF7FC
:10211C00E3FF08BD38B50346094A106860B10C46A8
:10212C004A1CFF2A09D8074D0A46C118284607F051
:10213C0049FA00232B55284638BD0020FCE700BF88
:10214C00C4270020C426002010B5044603220749EA
:10215C0007F06AFB38B103220549204607F064FBFF
:10216C0010B1012000E0002010BD00BFDCA400086D
:10217C00ACA4000810B50446FFF7E6FF08B1002038
:10218C0010BD054B2188A27819809A700022DA7054
:10219C000120024B1870F3E7CC270020C827002041
:1021AC00034B1B780BB1034870470020704700BFEE
:1021BC00C8270020CC270020014B1878704700BF9F
:1021CC00C82700202DE9F043D500EDB29C01E4B204
:1021DC0002F001024FF0000E20E04FEA5E0627E00D
:1021EC0010F80C8096F801C00CF00F0C4CEA081C8F
:1021FC0001F803C096F802C0F37803F00F0343EA2A
:10220C000C137B7096F804C0737903F00F0343EA48
:10221C000C13BB700EF1020E5FFA8EFEBEF1070FAF
:10222C0035D8002AD9D14FEA5E06C6F10306B6B2FC
:10223C00630803EB550333449BB20EEB050CA4442B
:10224C001FFA8CFC0CEB4C0C00EB0C0603EB430361
:10225C00CF18002AC4D196F8039096F8048008F0A1
:10226C000F0848EA091801F8038096F8058010F861
:10227C000C3003F00F0343EA08137B7096F801C08F
:10228C00B37803F00F0343EA0C13BB70C2E7BDE84D
:10229C00F0832DE9F04107460E46904600250BE0F1
:1022AC002B46224631463846FFF78CFF0134E4B208
:1022BC00072CF5D90135EDB2454501D20024F7E7DD
:1022CC00BDE8F08110B584B001AB83E80700074C82
:1022DC0093E8070084E80700012088476368002022
:1022EC009847A368984704B010BD00BFFC28002095
:1022FC00F0B583B00C4616461D46642900D96324FC
:10230C000C4F22460146384607F05CF900233B553A
:10231C00094C009733462A460849204607F012FA22
:10232C00074B1D682046FDF7F5FE81B22046A847F5
:10233C0003B0F0BDD027002034280020E8A400080A
:10234C00FC280020F0B583B016461D460B4F0A46FC
:10235C000146384607F0F6F9094C009733462A46F1
:10236C000849204607F0EEF9074B1D682046FDF79B
:10237C00D1FE81B22046A84703B0F0BDD027002083
:10238C0034280020E8A40008FC28002010B485B0F4
:10239C0001AB83E80700044C93E8070084E80700CE
:1023AC0005B010BC704700BF0829002038B50446A2
:1023BC000D46064B1D2201460548FFF7C3FF054B92
:1023CC001B6829462046984738BD00BFF8A4000872
:1023DC0040A500080829002008B5024B5B68984707
:1023EC0008BD00BF0829002008B5024B9B68984720
:1023FC0008BD00BF08290020034A044B1B6813804A
:10240C001B0C9370704700BF1829002050A50008C2
:10241C0070B50E4E74680E4D2846FDF77BFE81B2EA
:10242C002846A047044633680221284698470443AF
:10243C000849284607F0D2F928B1E4B23369642080
:10244C009847204670BD0124FBE700BF40290020BF
:10245C001829002054A5000808B5421C024903485D
:10246C0007F070F908BD00BF58A500081829002016
:10247C0008B5FFF7C1FFFFF7CBFFFFF7BDFFFFF775
:10248C00C7FF08BD10B500240A2C0BD8064BDB681F
:10249C00064A52F824009847FFF7EAFF10B10134BE
:1024AC00E4B2F1E7204610BD4029002028A6000820
:1024BC0038B50546FFF7E6FF2846FFF7CDFFFFF7D7
:1024CC00A7FF0446054BDB68054A52F825009847E0
:1024DC002043044B1D70C0B238BD00BF4029002002
:1024EC0028A600081529002084B010B502AC84E899
:1024FC000F00084C0DF1080CBCE80F000FC4DCF801
:10250C00003023600320FFF7D3FFBDE8104004B078
:10251C00704700BF4029002008B5024B5B68984704
:10252C0008BD00BF4029002008B5064B1B783BB9FD
:10253C00054B9B68984710B9024B01221A7008BDD5
:10254C000220FCE71429002040290020014B002226
:10255C001A70704714290020024B187880F0010083
:10256C00704700BF1429002068B1FF236AB1FF2215
:10257C0069B1FF2023F07F0302F00802134300F03F
:10258C000400184370470023F0E70022F0E7002016
:10259C00F0E7000010B485B0EC468CE80F00044C5A
:1025AC009CE80F0084E80F0005B010BC704700BF1A
:1025BC005429002070B582B005469F238DF8073052
:1025CC00154B9B68FBB1002098470026124B1B68EB
:1025DC00DBB10A2201210DF1070098470446344370
:1025EC00E4B20D4B5B6893B10A2209212846984747
:1025FC000443E4B2084B9B685BB101209847002070
:10260C00204302B070BD0426E0E70424E7E7042071
:10261C00EEE70420F4E700BF5429002000B585B094
:10262C0001A8FFF7C7FF40B9BDF80B2040F6260301
:10263C009A4202D040F00100C0B205B05DF804FB34
:10264C0070B582B0054605238DF80730154B9B6895
:10265C00FBB1002098470026124B1B68DBB10A2205
:10266C0001210DF10700984704463443E4B20D4BA9
:10267C005B6893B10A220121284698470443E4B2CF
:10268C00084B9B685BB1012098470020204302B0A7
:10269C0070BD0426E0E70424E7E70420EEE70420FD
:1026AC00F4E700BF5429002000B583B00DF10700FA
:1026BC00FFF7C6FF03B05DF804FB000038B50F4B05
:1026CC009B68ABB10120984700250C4BDB688BB1A4
:1026DC000A20984700242C43FFF7E6FF0443E4B29A
:1026EC00064BDB6843B10A2098470020204338BDD5
:1026FC000425EAE70424EEE70420F7E75429002038
:10270C0010B582B001238DF80730FFF72DFF8DF83F
:10271C000600154B9B68FBB1002098470024124B18
:10272C001B68DBB10A2201210DF107009847044315
:10273C00E4B20D4B1B689BB10A2201210DF106007E
:10274C0098470443E4B2084B9B685BB1012098475F
:10275C000020204302B010BD0424E0E70420E6E78B
:10276C000420EEE70420F4E75429002010B582B0D1
:10277C0006238DF807300F4B9B68ABB100209847B0
:10278C0000240C4B1B688BB10A2201210DF10700B0
:10279C0098470443E4B2074B9B684BB10120984720
:1027AC000020204302B010BD0424EAE70420F0E727
:1027BC000420F6E75429002070B588B0019002235C
:1027CC008DF8173003901044B0F5002F3ED20E4612
:1027DC0015469DF80E109DF80D209DF80C3000202C
:1027EC0007908DF81C108DF81D208DF81E30079B5E
:1027FC00069304931B4B9B6853B30020984700240B
:10280C00184B1B6833B30A2201210DF117009847AE
:10281C000443E4B2134B1B68F3B10A22032104A84E
:10282C0098470443E4B20F4B1B68BBB10A222946FC
:10283C00304698470443E4B20A4B9B6883B10120AD
:10284C009847002344EA030008B070BD0120FBE761
:10285C000424D5E70420DBE70420E2E70420E9E7C1
:10286C000423EFE75429002070B588B001900323AE
:10287C008DF8173003901044B0F5002F3ED20E4661
:10288C0015469DF80E109DF80D209DF80C3000207B
:10289C0007908DF81C108DF81D208DF81E30079BAD
:1028AC00069304931B4B9B6853B30020984700245A
:1028BC00184B1B6833B30A2201210DF117009847FE
:1028CC000443E4B2134B1B68F3B10A22032104A89E
:1028DC0098470443E4B20F4B5B68BBB10A2229460C
:1028EC00304698470443E4B20A4B9B6883B10120FD
:1028FC009847002344EA030008B070BD0120FBE7B1
:10290C000424D5E70420DBE70420E2E70420E9E710
:10291C000423EFE75429002000B50B8800EB030CCF
:10292C008978B9B10021C15411780901C9B2C154D7
:10293C0092F801E04EEA0101C1549CF8013003F019
:10294C000F038CF80130927843EA02138CF80130B3
:10295C005DF804FBC15C01F0F001C15492F800E099
:10296C0041EA0E01C15400238CF8013053781B014D
:10297C00DBB28CF80130927813438CF80130E7E726
:10298C0008B584460023184605E031F8132010449E
:10299C0080B20133DBB26345F7D3FDF731FD4FF065
:1029AC007F51FDF7BFFBFDF77FFD80B208BD000036
:1029BC0082B031F81010090A1148415C13F0010F74
:1029CC0003D18A1A92B2013A92B201FB032313F09B
:1029DC000102C3F34E0303EB430313440CBF012268
:1029EC000022ADF804308DF8062000209BB263F372
:1029FC000F00BDF8063063F31F4002B0704700BFF4
:102A0C0050A6000810B4C46834F811C04FEA1C2C4E
:102A1C00094C14F80CC04089814206D2624506D29A
:102A2C00634506D2002010BC70470520FBE705204B
:102A3C00F9E70520F7E700BF50A6000882B06B4607
:102A4C0083E80300034A93E8030082E8030002B022
:102A5C00704700BF68290020A0B110B504460123BF
:102A6C004374C06806F0C4FD206806F0C1FD6068C0
:102A7C0006F0BEFD0023237463822381204606F0FA
:102A8C00B7FD10BD70472DE9F04782B0044688466B
:102A9C0017461E46FFF7B6FF0546A8B9237CBBB9FF
:102AAC00D4F80CA051464046FFF76AFF81463346E6
:102ABC003A4651464046FFF77BFF019060680AAAF0
:102ACC0001A94844FFF728FF284602B0BDE8F0876B
:102ADC000225F9E708B5037C33B902890021406867
:102AEC0006F0B2FE002008BD0220FCE7F8B5054652
:102AFC000F46142006F074FD06460024047444743A
:102B0C0045810221284606F04DFEF06074826A0071
:102B1C00394606F057FD234605E037F813201444D8
:102B2C00A4B20133DBB2AB42F7D3602006F058FD00
:102B3C00306060221E2106F087FE2046FDF760FC07
:102B4C004FF07F51FDF7EEFAFDF7AEFC80B230810D
:102B5C0006F046FD70603046FFF7BCFF3046F8BD0E
:102B6C0038B5037C002B40F0408104460268416874
:102B7C00438A19444FEA411C2CF07E4C2CF01F0C5C
:102B8C000CF1085E0EF10C0E002304E01E2504303F
:102B9C0015540133DBB2032B07D81846AEEB830573
:102BAC002D68002DF2D03C25F1E70CF1085C0CF1FE
:102BBC001C0C002304E01E250C3015540133DBB231
:102BCC00032B07D81846ACEB83052D68002DF2D0EB
:102BDC003C25F1E701F1010C4FEA4C1C2CF07E4C2A
:102BEC002CF01F0C0CF1085E0EF11C0E002304E0FF
:102BFC001E25143015540133DBB2032B07D81846AD
:102C0C00AEEB83052D68002DF2D03C25F1E70231A7
:102C1C00490121F07E4121F01F0101F1085E0EF106
:102C2C001C0E002304E01E251C3015540133DBB2AE
:102C3C00032B07D81846AEEB83052D68002DF2D078
:102C4C003C25F1E70CF1085C0CF10C0C002304E0C2
:102C5C001E25243015540133DBB2032B07D818463C
:102C6C00ACEB83052D68002DF2D03C25F1E701F18A
:102C7C0008500C30002304E01E252C315554013330
:102C8C00DBB2032B07D81946A0EB83052D68002D6A
:102C9C00F2D03C25F1E7638A03339BB2638222684E
:102CAC003032616819444FEA411C2CF07E4C2CF0F8
:102CBC001F0C0CF1085E0EF10C0E002304E01E2517
:102CCC00043015540133DBB2032B07D81846AEEB96
:102CDC0083052D68002DF2D03C25F1E70CF1085C42
:102CEC000CF11C0C002304E01E250C301554013390
:102CFC00DBB2032B07D81846ACEB83052D68002DEF
:102D0C00F2D03C25F1E701F1010C4FEA4C1C2CF000
:102D1C007E4C2CF01F0C0CF1085E0EF11C0E0023E7
:102D2C0004E01E25143015540133DBB2032B07D8F5
:102D3C001846AEEB83052D68002DF2D03C25F1E74B
:102D4C000231490121F07E4121F01F0101F1085EA1
:102D5C000EF11C0E002304E01E251C30155401330B
:102D6C00DBB2032B07D81846AEEB83052D68002D7C
:102D7C00F2D03C25F1E70CF1085C0CF10C0C0023B3
:102D8C0004E01E25243015540133DBB2032B07D885
:102D9C001846ACEB83052D68002DF2D03C25F1E7ED
:102DAC0001F108500C30002306E04FF01E0C2C31C2
:102DBC0002F801C00133DBB2032B08D81946A0EB93
:102DCC0083052D68002DF0D04FF03C0CEFE7638AA3
:102DDC0003336382064B1B6860212068984718B93F
:102DEC00044B1C600123237438BD0220FCE700BF98
:102DFC00682900206429002038B5604B1C68002C21
:102E0C0000F0BA80638A2289934211D893421ED271
:102E1C0022683032616819444FEA411C2CF07E4C18
:102E2C002CF01F0C0CF1085E0EF10C0E00231DE0B3
:102E3C00534B5B689847514D2B6800241C745C8283
:102E4C0060221E21186806F0FFFC2C6094E02068BC
:102E5C0030220021104406F0F7FC638A06336382AB
:102E6C008AE01E25043015540133DBB2032B07D83E
:102E7C001846AEEB83052D68002DF2D03C25F1E70A
:102E8C000CF1085C0CF11C0C002304E01E250C302A
:102E9C0015540133DBB2032B07D81846ACEB830572
:102EAC002D68002DF2D03C25F1E701F1010C4FEA21
:102EBC004C1C2CF07E4C2CF01F0C0CF1085E0EF10F
:102ECC001C0E002304E01E25143015540133DBB214
:102EDC00032B07D81846AEEB83052D68002DF2D0D6
:102EEC003C25F1E70231490121F07E4121F01F011F
:102EFC0001F1085E0EF11C0E002304E01E251C30AF
:102F0C0015540133DBB2032B07D81846AEEB8305FF
:102F1C002D68002DF2D03C25F1E70CF1085C0CF18A
:102F2C000C0C002304E01E25243015540133DBB2B5
:102F3C00032B07D81846ACEB83052D68002DF2D077
:102F4C003C25F1E701F108500C30002306E04FF06E
:102F5C001E0C2C3102F801C00133DBB2032B08D854
:102F6C001946A0EB83052D68002DF0D04FF03C0CDA
:102F7C00EFE7638A0333638238BD00BF6429002006
:102F8C006829002038B55B4B1868002800F0B08029
:102F9C00437C002B40F0AC80438A028993420DD2D3
:102FAC000268416819444FEA411E2EF07E4E2EF005
:102FBC001F0E0EF108550C3500230CE030220021B9
:102FCC00006806F041FC93E01E240CF1040C02F89E
:102FDC000C400133DBB2032B07D89C46A5EB8304D2
:102FEC002468002CF0D03C24EFE70EF1085E0EF1C3
:102FFC001C0E002306E01E240CF10C0C02F80C40F5
:10300C000133DBB2032B07D89C46AEEB8304246858
:10301C00002CF0D03C24EFE701F1010E4FEA4E1EDC
:10302C002EF07E4E2EF01F0E0EF108551C3500238F
:10303C0006E01E240CF1140C02F80C400133DBB238
:10304C00032B07D89C46A5EB83042468002CF0D0F6
:10305C003C24EFE70231490121F07E4121F01F01B0
:10306C0001F108551C35002306E01E240CF11C0C44
:10307C0002F80C400133DBB2032B07D89C46A5EBBE
:10308C0083042468002CF0D03C24EFE70EF1085E9A
:10309C000EF10C0E002306E01E240CF1240C02F899
:1030AC000C400133DBB2032B07D89C46AEEB8304F8
:1030BC002468002CF0D03C24EFE701F1085C0CF103
:1030CC000C0C002306E04FF01E0E2C3102F801E030
:1030DC000133DBB2032B08D81946ACEB830424680C
:1030EC00002CF0D04FF03C0EEFE7438A03334382C1
:1030FC0038BD00BF6429002000B583B00146002014
:10310C0001901022FFF7B0FB03B05DF804FB10B583
:10311C0082B00446FFF72AFB0020019010222146C2
:10312C00FFF74AFB02B010BD00B583B0054A6B46F1
:10313C0092E8030083E80300FEF7FAFC03B05DF8A5
:10314C0004FB00BF78A1000800B583B00146102035
:10315C00019040F28142FFF787FB03B05DF804FB5E
:10316C0010B582B00446FFF701FB1020019040F22D
:10317C0081422146FFF720FB02B010BD00B583B0A1
:10318C00054A6B4692E8030083E80300FEF7B6FDA0
:10319C0003B05DF804FB00BF80A1000840F261336E
:1031AC0003FB00F000F29140704770B582B00E4600
:1031BC00FFF7F4FF0446009001223146FFF754FB61
:1031CC000546601C01904FF458727168FFF74CFB78
:1031DC002843C0B202B070BD70B582B00E46FFF786
:1031EC00DDFF0546FFF7C2FA044600950122314681
:1031FC002846FFF7E1FA0443E4B2FFF7B7FA0443B9
:10320C00E4B2681C01904FF458727168FFF7D4FA5D
:10321C002043C0B202B070BD00B583B0054A6B4606
:10322C0092E8030083E80300FEF700FE03B05DF8AC
:10323C0004FB00BF88A100082DE9F04188B00024F0
:10324C000494059406940794274B9A6942F0100253
:10325C009A619A6902F010020192019A9A6942F0FD
:10326C0020029A619A6902F020020292029A9A69EB
:10327C0042F004029A619B6903F004030393039BDD
:10328C001A4E22464FF4C041304601F09DFF184FB4
:10329C0001221021384601F097FF4FF4005304939C
:1032AC004FF00108CDF8148006940225079504A967
:1032BC00304601F0FDFD4FF4804304931123059338
:1032CC000694079504A9304601F0F2FD10230493EF
:1032DC00CDF81480069407950DEB0301384601F0E8
:1032EC00E7FD08B0BDE8F08100100240001001407D
:1032FC000008014000B583B00E4B5A6942F0010240
:10330C005A615B6903F001030193019B0022114692
:10331C000F2002F057F90F2002F064F90022114639
:10332C00102002F04FF9102002F05CF903B05DF8A8
:10333C0004FB00BF0010024072B6FEE700B58BB074
:10334C000023089309930193029303930493059329
:10335C000693079315484FF08042026043608360E8
:10336C005922C2600361836100F04EFEC0B9002394
:10337C000893099308A90D4801F054F990B96023FA
:10338C000193002202920392059201A9074800F0D2
:10339C0095FE48B9054800F04DFB0BB05DF804FBF9
:1033AC00FFF7CAFFFFF7C8FFFFF7C6FF882A002008
:1033BC0008B50A480A4B03604FF4165343600023C8
:1033CC008360C36003610C2242618361C36102F0BC
:1033DC00F5F900B908BDFFF7AFFF00BFB429002015
:1033EC000044004000B587B000230293039304937C
:1033FC000593009301931348134A02600B22426019
:10340C0083604EF65F22C2600361836100F0D0FDE1
:10341C0090B94FF48053029302A90A4800F0C8FEF9
:10342C0060B90023009301936946064801F0FAF84D
:10343C0030B907B05DF804FBFFF77EFFFFF77CFFA8
:10344C00FFF77AFF402A00200004004008B50D4821
:10345C000D4B03604FF48273436000238360C360A1
:10346C00036143614FF4007282610822C2610362FE
:10347C00436283620A23C36202F010FD00B908BDE7
:10348C00FFF75AFFD02A00200030014000B595B05C
:10349C00282200210DEB020006F0D6F9002305933B
:1034AC000693079308930993019302930393049350
:1034BC0001220A924FF480330B930E920222119246
:1034CC0012934FF4E01313930AA801F057F9C0B903
:1034DC000F23059302210691002307934FF480627A
:1034EC000892099305A801F07BFB60B910230193A6
:1034FC000023049301A801F04FFC30B915B05DF81E
:10350C0004FBFFF719FFFFF717FFFFF715FF00008C
:10351C0008B501F0E5F8FFF7B9FFFFF78DFEFFF7EF
:10352C00E9FEFFF70BFFFFF743FFFFF75BFFFFF72A
:10353C008DFF02F0CBFFFFF7F7FDFFF71FFEFFF744
:10354C006BFE184A1849194800F088F9184B82226A
:10355C0020211848FEF7CCFEFFF7B0F8FFF75EF815
:10356C0008B1FFF7E9FE124B89221F211248FEF722
:10357C00BFFEFFF7FBF8002211461046FFF7C0F81C
:10358C0000F03CF908B1FFF7D7FE094B902225213A
:10359C000A48FEF7ADFE00210948FDF7ADF9FDF72D
:1035AC00C9F9FCE7882A0020D02A0020B429002081
:1035BC0064A5000874A5000898A50008B8A5000823
:1035CC000CA3000808B50A460146024B186802F025
:1035DC00A1FB08BD282B002008B50A464FF4FA734E
:1035EC0001460248006802F033F908BD282B002080
:1035FC0008B50A464FF4FA7301460248006802F017
:10360C0086F908BD282B002038B50446054D2868DE
:10361C0002F012FA286802F001F92868446002F0FE
:10362C00CDF838BD282B002010B588B0084B186099
:10363C000DF10C0C074C0FCCACE80F002368CCF848
:10364C000030009303AB0FCBFEF74EFF08B010BD5C
:10365C00282B002090A1000808B5FEF777FF08BDC5
:10366C0008B513460A4601460248006802F071FC90
:10367C0008BD00BF2C2B002008B513460A46014696
:10368C000248006802F063FE08BD00BF2C2B00202E
:10369C0008B502461021024801F096FD08BD00BF96
:1036AC000008014000B585B0054B1860054BEC4691
:1036BC000FCB8CE80F00FEF76DFF05B05DF804FB37
:1036CC002C2B0020A4A1000810B5054C002120686B
:1036DC0000F032FF23681B6800225A6310BD00BF44
:1036EC00302B002008B502460B460021024800682A
:1036FC0000F0ECFD08BD00BF302B002000B583B0FE
:10370C00064B1860064A6B4692E8030083E80300F8
:10371C00FFF794F903B05DF804FB00BF302B0020D9
:10372C00B4A1000808B5FFF767FB08BD08B5FFF7A3
:10373C0029FC08BD08B5FEF70FFF08BD08B5FEF75C
:10374C00F3FE08BD08B5FEF7E7FE08BD00B585B071
:10375C00044A01AB07CA83E80700FEF717FE05B061
:10376C005DF804FBBCA1000810B5D4B01B49684639
:10377C00FDF742FB1A4C214607A8FDF7AFF921468D
:10378C000EA8FDF7D1FA214615A8FDF783FB1CA85E
:10379C00FDF7EAFB214623A8FDF7BCFC21462AA82D
:1037AC00FDF732FD214631A8FDF75EFE214638A813
:1037BC00FDF7A4FE21463FA8FDF7A8FF214646A829
:1037CC00FEF7C2F821464DA8FEF714F94FF4A87283
:1037DC006946044805F0F6FE54B010BDF5370008F4
:1037EC0005090008342B002008B54FF4005102489D
:1037FC0001F0F0FC08BD00BF0010014008B5FFF758
:10380C00B3FF0C2202490348FDF752F808BD00BF74
:10381C00342B002029470008704708B502F040FF00
:10382C0008BD000008B580F001024FF48041034848
:10383C0001F0CAFC142000F077FF08BD0010014015
:10384C0000B585B0044A01AB07CA83E80700FEF750
:10385C0039FD05B05DF804FBC8A1000838B50D466C
:10386C001446FFF7E1FE2846FFF71CFF2046FFF742
:10387C0045FFFFF76BFFFFF7E3FF38BDFEE7FEE701
:10388C00FEE7FEE7FEE770477047704708B500F0AB
:10389C0039FF08BD08B5024801F0ACFD08BD00BFFA
:1038AC00FC29002008B5024801F0A4FD08BD00BFAA
:1038BC007029002008B5024803F01CFE08BD00BFAB
:1038CC006C3B002008B5024800F04CFA08BD00BF64
:1038DC00402A002082B00E4B9A6942F001029A6194
:1038EC009A6902F001020092009ADA6942F0805261
:1038FC00DA61DB6903F080530193019B054A53683D
:10390C0023F0E06343F00073536002B0704700BFD4
:10391C00001002400000014010B586B00023029355
:10392C000393049305930268164B9A4201D006B098
:10393C0010BD03F560439A6942F480529A619A690A
:10394C0002F480520092009A9A6942F004029A6141
:10395C009B6903F004030193019BA02302930223B0
:10396C00039303230593084C02A9204601F0A0FA07
:10397C004023029300230393049302A9204601F0F1
:10398C0097FAD4E700300140000801400368B3F116
:10399C00804F00D0704710B582B0044603F5043355
:1039AC00DA6942F00102DA61DB6903F00103019389
:1039BC00019B0E480E4B0360102343600023836071
:1039CC008022C2604FF480720261436120238361C4
:1039DC004FF40053C36101F01DFC20B9034B63622B
:1039EC005C6202B010BDFFF7A7FCF7E7FC290020D2
:1039FC005800024002680E4B9A4200D0704700B546
:103A0C0083B003F50333DA6942F00202DA61DB6951
:103A1C0003F002030193019B002211461D2001F0CB
:103A2C00D1FD1D2001F0DEFD03B05DF804FB00BFED
:103A3C000004004000B587B0002302930393049365
:103A4C0005930368B3F1804F02D007B05DF804FB17
:103A5C0003F504339A6942F004029A619B6903F0FE
:103A6C0004030193019B0123029302230393032379
:103A7C00059302A9014801F01BFAE6E70008014092
:103A8C0070B586B0002302930393049305930268E8
:103A9C00214B9A4201D006B070BD044603F5E633C3
:103AAC00DA6942F40032DA61DA6902F40032009227
:103ABC00009A9A6942F004029A619B6903F004032C
:103ACC000193019B04230293022303930323059385
:103ADC00124E02A9304601F0EBF90823029300259F
:103AEC00039504950DEB0301304601F0E1F90C4808
:103AFC000C4B0360456085608023C36005614561A4
:103B0C008561C56101F086FB18B9054BE3635C6206
:103B1C00C1E7FFF711FCF8E7004400400008014042
:103B2C00702900206C0002400268094B9A4200D0B8
:103B3C00704710B50446074AD36923F40033D361A8
:103B4C000C21054801F0C2FAE06B01F097FB10BDA7
:103B5C0000440040001002400008014030B4026AEA
:103B6C00036A23F0010303624568836923F073033E
:103B7C000C681C4322F002028B6813430B4A9042E0
:103B8C0006D0456084614A684263036230BC70476A
:103B9C0023F00803CA681A4322F0040325F4407585
:103BAC004A692A438D691543EBE700BF002C01409D
:103BBC0030B4036A026A22F4807202624468C269F9
:103BCC0022F073020D68154323F400738A6843EAEC
:103BDC0002230D4A904206D04460C5614A68C26314
:103BEC00036230BC704723F40063CA6843EA0223C3
:103BFC0023F4806324F440544A6944EA02148A6929
:103C0C0044EA0214E8E700BF002C014030B4036A18
:103C1C00026A22F4805202624468C26922F4E642CB
:103C2C000D6842EA052223F400538D6843EA0533FC
:103C3C00074DA84206D04460C2614A680264036220
:103C4C0030BC704724F480444D6944EA8514F2E793
:103C5C00002C014010B4036A046A24F001040462CD
:103C6C00846924F0F00C4CEA021223F00A030B4393
:103C7C008261036210BC704710B4036A046A24F0BA
:103C8C0010040462846924F4704C4CEA023223F070
:103C9C00A00343EA01138261036210BC704783687E
:103CAC0023F070030B4343F00703836070477047A6
:103CBC007047704710B5446A636A83420ED0A36A9A
:103CCC00834214D0E36A83421AD0236B834220D000
:103CDC002046FFF727FD0023237710BD0123237710
:103CEC008369002BF4D1012384F83E30F0E70223E2
:103CFC0023778369002BEBD1012384F83F30E7E76E
:103D0C00042323778369002BE2D1012384F840300C
:103D1C00DEE7082323778369002BD9D1012384F8AC
:103D2C004130D5E710B5446A636A83420BD0A36A6D
:103D3C00834210D0E36A834210D0236B834204D1B8
:103D4C000823237701E0012323772046FFF7EEFCBD
:103D5C000023237710BD02232377F6E70423237770
:103D6C00F3E7704710B5044603681A6912F0020FA6
:103D7C0011D0DA6812F0020F0DD06FF002021A6146
:103D8C000123037703689B6913F0030F70D0FFF7CF
:103D9C0090FF0023237723681A6912F0040F12D0C6
:103DAC00DA6812F0040F0ED06FF004021A610223CD
:103DBC00237723689B6913F4407F5FD02046FFF77D
:103DCC0078FF0023237723681A6912F0080F12D0AA
:103DDC00DA6812F0080F0ED06FF008021A61042393
:103DEC0023772368DB6913F0030F4ED02046FFF7CF
:103DFC0060FF0023237723681A6912F0100F12D08A
:103E0C00DA6812F0100F0ED06FF010021A6108234E
:103E1C0023772368DB6913F4407F3DD02046FFF7FE
:103E2C0048FF0023237723681A6912F0010F03D08F
:103E3C00DA6812F0010F36D123681A6912F0800F7C
:103E4C0003D0DA6812F0800F34D123681A6912F0AB
:103E5C00400F03D0DA6812F0400F32D123681A6990
:103E6C0012F0200F03D0DA6812F0200F30D110BD01
:103E7C00FFF71EFF2046FFF755FC8AE72046FFF7A9
:103E8C0017FF2046FFF74EFC9BE72046FFF710FF7D
:103E9C002046FFF747FCACE72046FFF709FF20461A
:103EAC00FFF740FCBDE76FF001021A612046FFF7F7
:103EBC00FEFEC1E76FF080021A61204600F0E9FBBC
:103ECC00C3E76FF040021A612046FFF74AFFC5E7CF
:103EDC006FF020021A61204600F0DAFBC7E770474A
:103EEC0010B5446A636A83420CD0A36A834213D030
:103EFC00E36A834216D0236B834219D0012384F8E2
:103F0C003D3003E00123237784F83E302046FFF751
:103F1C00E6FF0023237710BD02232377012384F8C7
:103F2C003F30F3E704232377012384F84030EDE797
:103F3C0008232377012384F84130E7E703681B4A01
:103F4C0090420AD0B0F1804F07D0A2F59432904243
:103F5C0003D002F58062904203D123F070034A68CB
:103F6C001343124A90420AD0B0F1804F07D0A2F509
:103F7C009432904203D002F58062904203D123F434
:103F8C004073CA68134323F080034A6913430360E8
:103F9C008B68C3620B688362044B984202D0012386
:103FAC00436170470B690363F9E700BF002C0140C4
:103FBC0040B310B5044690F83D30F3B1022384F8B9
:103FCC003D30214651F8040BFFF7B8FF012384F86C
:103FDC00463084F83E3084F83F3084F8403084F822
:103FEC00413084F8423084F8433084F8443084F80B
:103FFC00453084F83D30002010BD80F83C30FFF790
:10400C00F9FCDBE70120704740B310B5044690F88B
:10401C003D30F3B1022384F83D30214651F8040BB6
:10402C00FFF78CFF012384F8463084F83E3084F887
:10403C003F3084F8403084F8413084F8423084F8C2
:10404C00433084F8443084F8453084F83D30002007
:10405C0010BD80F83C30FFF799FCDBE7012070477E
:10406C0030B4036A026A22F0100202624468826968
:10407C0022F4E6420D6842EA052223F020038D6803
:10408C0043EA05130C4DA84206D0446082614A688D
:10409C008263036230BC704723F08003CD6843EA2F
:1040AC00051323F0400324F440644D6944EA85046D
:1040BC008D6944EA8504E8E7002C014038B590F896
:1040CC003C30012B66D004460D46012380F83C3071
:1040DC000C2A5AD8DFE802F0075959591B5959597B
:1040EC003059595944000068FFF738FD226893692C
:1040FC0043F0080393612268936923F004039361EE
:10410C002268936929690B43936100203EE00068A3
:10411C00FFF7A6FF2268936943F40063936122685A
:10412C00936923F48063936122689369296943EA54
:10413C0001239361002029E00068FFF739FD226814
:10414C00D36943F00803D3612268D36923F00403D5
:10415C00D3612268D36929690B43D361002015E030
:10416C000068FFF753FD2268D36943F40063D36101
:10417C002268D36923F48063D3612268D3692969E7
:10418C0043EA0123D361002000E00120002384F8DE
:10419C003C3038BD0220FCE710B4846824F47F4C1A
:1041AC0042EA03220A4342EA0C02826010BC7047C6
:1041BC0090F83C30012B78D010B50446012380F8E0
:1041CC003C30022380F83D300268936823F47F432F
:1041DC0023F0770393600B68602B4CD023D8402BD3
:1041EC0054D011D8202B03D00AD80BB1102B05D1E9
:1041FC0019462068FFF753FD002028E0012026E037
:10420C00302BF5D0012022E0502B0AD1CA68496826
:10421C000068FFF71FFD50212068FFF740FD0020CC
:10422C0015E0012013E0B3F5805F3AD0B3F5005FE1
:10423C0014D0702B37D1CB684A6889680068FFF7B7
:10424C00ABFF2268936843F077039360002001234F
:10425C0084F83D30002384F83C3010BDCB684A68AC
:10426C0089680068FFF798FF2268936843F48043DD
:10427C0093600020EBE7CA6849680068FFF7FCFC14
:10428C0060212068FFF70BFD0020E0E7CA68496851
:10429C000068FFF7DFFC40212068FFF700FD0020DD
:1042AC00D5E70020D3E70120D1E70220704701F0C9
:1042BC001F014FF0010C0CFA01FC036A23EA0C03FA
:1042CC000362036A8A4013430362704770B5044665
:1042DC0016460D4600295AD190F83E00C0B202286D
:1042EC0014BF00200120002840F00A81002D6AD163
:1042FC0094F83E20D2B2012A14BF00220122002AD7
:10430C0000F00081002E00F0FF80002B00F0FE80FA
:10431C00002D74D1022284F83E20626A8249916297
:10432C00626A8249D162626A8149116322683432BD
:10433C003146606A00F0D6FF002840F0EB8022681E
:10434C00D36843F40073D360012229462068FFF739
:10435C00AEFF2368774A934200F0C2802368754A07
:10436C00934200F0C280B3F1804F00F0BE80A2F502
:10437C009432934200F0B98002F58062934200F0CF
:10438C00B4801A6842F001021A600020BBE00429D4
:10439C0009D008290FD090F84100C0B2022814BFF0
:1043AC00002001209FE790F83F00C0B2022814BF04
:1043BC000020012097E790F84000C0B2022814BFFB
:1043CC00002001208FE7042D09D0082D0FD094F880
:1043DC004120D2B2012A14BF002201228FE794F8A7
:1043EC003F20D2B2012A14BF0022012287E794F8A1
:1043FC004020D2B2012A14BF002201227FE7042DF3
:10440C0024D0082D3CD0022284F841200C2D7FD8DA
:10441C0001A252F825F000BF274300081D450008F3
:10442C001D4500081D4500085F4400081D45000897
:10443C001D4500081D450008934400081D45000853
:10444C001D4500081D450008C1440008022284F8DF
:10445C003F20A26A34499162A26A3449D162A26AAD
:10446C0033491163226838323146A06A00F03AFFB2
:10447C00002851D12268D36843F48063D36063E78A
:10448C00022284F84020E26A27499162E26A2749B5
:10449C00D162E26A2649116322683C323146E06AF5
:1044AC0000F020FF002839D12268D36843F4006360
:1044BC00D36049E7226B1C499162226B1B49D16284
:1044CC00226B1B491163226840323146206B00F08D
:1044DC0009FF28BB2268D36843F48053D36033E7C9
:1044EC005A6C42F400425A6438E79A6802F00702A8
:1044FC00062A17D01A6842F001021A60002002E066
:10450C00022000E0012070BD0120FCE70120FAE749
:10451C000120F8E70120F6E70120F4E70120F2E79B
:10452C000120F0E70020EEE7C13C0008313D000817
:10453C00ED3E0008002C014038B504460D460C2910
:10454C006CD8DFE801F0076B6B6B2E6B6B6B376B0A
:10455C006B6B40000268D36823F40073D360406A2D
:10456C0000F0FCFE002229462068FFF7A0FE23681D
:10457C002B4A934230D02368196A41F2111211422E
:10458C0008D1196A40F24442114203D11A6822F050
:10459C0001021A60002D2ED1012384F83E30002038
:1045AC003DE00268D36823F48063D360806A00F036
:1045BC00D5FED7E70268D36823F40063D360C06AE2
:1045CC0000F0CCFECEE70268D36823F48053D360AE
:1045DC00006B00F0C3FEC5E7196A41F211121142DB
:1045EC00C9D1196A40F244421142C4D15A6C22F426
:1045FC0000425A64BFE7042D06D0082D09D00123D0
:10460C0084F8413000200AE0012384F83F30002078
:10461C0005E0012384F84030002000E0012038BD83
:10462C00002C014090F83C20012A2CD010B40346F9
:10463C00012280F83C20022280F83D20026850685C
:10464C00946820F0700C086840EA0C0050601A68FE
:10465C000E4882420AD0B2F1804F07D0A0F59430B8
:10466C00824203D000F58060824204D124F08004A1
:10467C00496821439160012283F83D20002083F892
:10468C003C0010BC70470220704700BF002C01405A
:10469C007047704710B504460E4B1A784FF47A7376
:1046AC00B3FBF2F30C4A1068B0FBF3F000F0A8FF78
:1046BC0068B90F2C01D901200AE0002221464FF0E5
:1046CC00FF3000F07FFF054B1C60002000E0012054
:1046DC0010BD00BF40010020480100204401002013
:1046EC0008B5074A136843F010031360032000F069
:1046FC0057FF0F20FFF7CEFFFFF7ECF8002008BDA7
:10470C0000200240034A1168034B1B780B441360D2
:10471C00704700BF842C002040010020014B18681A
:10472C00704700BF842C002038B50446FFF7F6FF15
:10473C000546B4F1FF3F02D0044B1B781C44FFF735
:10474C00EDFF401BA042FAD338BD00BF4001002052
:10475C0082B0084B1B68084AA2FB03235B0A00FBD0
:10476C0003F3019300BF019B5A1E0192002BF9D158
:10477C0002B0704748010020D34D6210002800F0B1
:10478C00F18170B582B00446036813F0010F2CD090
:10479C00994B5B6803F00C03042B1DD0964B5B68A4
:1047AC0003F00C03082B12D06368B3F5803F41D0A3
:1047BC00002B55D103F1804303F504331A6822F41E
:1047CC0080321A601A6822F480221A6037E08A4B11
:1047DC005B6813F4803FE7D0874B1B6813F4003FF2
:1047EC0003D06368002B00F0BF81236813F0020F25
:1047FC0075D0814B5B6813F00C0F5FD07E4B5B6800
:10480C0003F00C03082B54D02369002B00F08A8092
:10481C007A4B01221A60FFF781FF0546764B1B6825
:10482C0013F0020F75D1FFF779FF401B0228F5D961
:10483C0003209EE1704A136843F48033136063686D
:10484C0043B3FFF76BFF05466B4B1B6813F4003F3C
:10485C00CBD1FFF763FF401B6428F5D9032088E117
:10486C00B3F5A02F09D0644B1A6822F480321A6079
:10487C001A6822F480221A60E1E703F18043A3F561
:10488C003C331A6842F480221A601A6842F480326F
:10489C001A60D4E7FFF742FF0546574B1B6813F429
:1048AC00003FA2D0FFF73AFF401B6428F5D9032044
:1048BC005FE1514B5B6813F4803FA5D14E4B1B68F5
:1048CC0013F0020F03D02369012B40F04F814A4AA9
:1048DC00136823F0F803616943EAC103136023688A
:1048EC0013F0080F33D0A369002B5CD0434B01228B
:1048FC00C3F88024FFF712FF05463F4B5B6A13F0A9
:10490C00020F21D1FFF70AFF401B0228F5D9032023
:10491C002FE1394A136823F0F803616943EAC103B4
:10492C001360DCE7354B00221A60FFF7F7FE0546F3
:10493C00314B1B6813F0020FD1D0FFF7EFFE401B79
:10494C000228F5D9032014E10120FFF701FF2368A9
:10495C0013F0040F00F09680274BDB6913F0805F97
:10496C0034D1254BDA6942F08052DA61DB6903F00D
:10497C0080530193019B0125214B1B6813F4807F0D
:10498C0026D0E368012B3DD0002B53D103F180439B
:10499C0003F504331A6A22F001021A621A6A22F031
:1049AC0004021A6233E0154B0022C3F88024FFF78F
:1049BC00B5FE0546104B5B6A13F0020FC7D0FFF72C
:1049CC00ADFE401B0228F5D90320D2E00025D3E729
:1049DC000B4A136843F480731360FFF79FFE06467F
:1049EC00074B1B6813F4807FCBD1FFF797FE801B1E
:1049FC006428F5D90320BCE00010024000004242BC
:104A0C00007000405F4A136A43F001031362E368CD
:104A1C0033B3FFF783FE06465A4B1B6A13F0020FA3
:104A2C002FD1FFF77BFE801B41F288339842F3D9DC
:104A3C0003209EE0052B09D0524B1A6A22F001028A
:104A4C001A621A6A22F004021A62E0E74D4B1A6AE3
:104A5C0042F004021A621A6A42F001021A62D6E7A4
:104A6C00FFF75CFE0646474B1B6A13F0020F08D09B
:104A7C00FFF754FE801B41F288339842F3D9032090
:104A8C0077E0E5B9E369002B72D03E4A526802F038
:104A9C000C02082A56D0022B17D03B4B00221A6668
:104AAC00FFF73CFE0446374B1B6813F0007F47D0E2
:104ABC00FFF734FE001B0228F5D9032059E0314AD8
:104ACC00D36923F08053D361DCE72F4B00221A66A5
:104ADC00FFF724FE05462B4B1B6813F0007F06D016
:104AEC00FFF71CFE401B0228F5D9032041E0236A86
:104AFC00B3F5803F1AD023494B6823F47413226A10
:104B0C00606A024313434B601F4B01221A66FFF786
:104B1C0005FE04461B4B1B6813F0007F0ED1FFF7FC
:104B2C00FDFD001B0228F5D9032022E0154A53682D
:104B3C0023F40033A1680B435360DCE7002018E03A
:104B4C00002016E0012B16D00E4B5B6803F480316D
:104B5C00226A914211D103F47013626A93420ED10E
:104B6C00002006E001207047012002E0012000E057
:104B7C00002002B070BD0120FBE70120F9E7012005
:104B8C00F7E700BF00100240000042420F4B5B6889
:104B9C0003F00C02082A01D00D487047C3F383427E
:104BAC000C49885C13F4803F0BD0084B5B68C3F353
:104BBC004043094AD35C064A02FB00F0B0FBF3F019
:104BCC007047064B03FB00F0704700BF001002401B
:104BDC0000127A0058A6000854A6000800093D00EF
:104BEC00002800F0A08070B50D460446524B1B689F
:104BFC0003F007038B420BD24F4A136823F00703D1
:104C0C000B431360136803F007038B4240F08D8055
:104C1C00236813F0020F17D013F0040F04D0474A87
:104C2C00536843F4E0635360236813F0080F04D017
:104C3C00424A536843F460535360404A536823F02C
:104C4C00F003A1680B435360236813F0010F31D0BC
:104C5C006368012B20D0022B25D0384A126812F041
:104C6C00020F64D035494A6822F0030213434B60AB
:104C7C00FFF754FD0646314B5B6803F00C0362688A
:104C8C00B3EB820F16D0FFF749FD801B41F288333E
:104C9C009842F0D9032045E0284A126812F4003FEC
:104CAC00E0D101203EE0254A126812F0007FD9D1F4
:104CBC00012037E0204B1B6803F00703AB420AD9F5
:104CCC001D4A136823F007032B431360136803F08A
:104CDC000703AB422DD1236813F0040F06D0174AFB
:104CEC00536823F4E063E1680B435360236813F0CB
:104CFC00080F07D0114A536823F46053216943EA23
:104D0C00C1035360FFF742FF0C4B5B68C3F3031303
:104D1C000B4AD35CD8400B4B18600B4B1868FFF751
:104D2C00B9FC002070BD012070470120FAE701207A
:104D3C00F8E70120F6E700BF002002400010024017
:104D4C0070A600084801002044010020014B18689F
:104D5C00704700BF4801002008B5FFF7F7FF044B70
:104D6C005B68C3F30223034AD35CD84008BD00BF81
:104D7C000010024068A6000808B5FFF7E7FF044BD7
:104D8C005B68C3F3C223034AD35CD84008BD00BFA1
:104D9C000010024068A6000870B582B00446036893
:104DAC0013F0010F36D03F4BDB6913F0805F49D114
:104DBC003C4BDA6942F08052DA61DB6903F08053D4
:104DCC000193019B0125384B1B6813F4807F3BD06A
:104DDC00344B1B6A13F4407313D0626802F44072B4
:104DEC009A420ED02F4A136A23F440702F490126A1
:104DFC00C1F840640026C1F84064106213F0010F42
:104E0C0036D1284A136A23F4407361680B4313624A
:104E1C00002D3ED1236813F0020F06D0214A5368AF
:104E2C0023F44043A1680B435360236813F0100F25
:104E3C0034D01C4A536823F48003E1680B4353605D
:104E4C0000202CE00025BEE7174A136843F480735A
:104E5C001360FFF763FC0646134B1B6813F4807F4B
:104E6C00B6D1FFF75BFC801B6428F5D9032016E054
:104E7C00FFF754FC06460B4B1B6A13F0020FC0D114
:104E8C00FFF74CFC801B41F288339842F3D9032086
:104E9C0005E0D36923F08053D361BBE7002002B057
:104EAC0070BD00BF00100240007000400000424284
:104EBC0070B582B00024A446A1E07E4DAB4214D064
:104ECC000CD8A5F58015AB420FD005F57025AB427B
:104EDC000BD0A5F58015AB4210D106E0764DAB4258
:104EEC0003D005F58035AB4208D18B68002B50D030
:104EFC00012B49D04261082400E0CC68BEF1FF0FC1
:104F0C0049D806464FEA8C0233680F25954023EAB0
:104F1C00050304FA02F2134333604B6813F0805F0D
:104F2C006BD0664B9A6942F001029A619B6903F05F
:104F3C0001030193019B4FEA9C02951C604B53F8B3
:104F4C0025600CF00305AD000F23AB4026EA0306E9
:104F5C005C4B984226D003F58063984200F08C801D
:104F6C0003F58063984200F0898003F580639842D2
:104F7C0016D0042317E0CC680434BFE7CC6808349F
:104F8C00BCE7CC680C34B9E702610824B6E700240E
:104F9C00B4E70424B2E7061DACF108029200B3E7B3
:104FAC00032300E00023AB4033430232444D45F869
:104FBC0022304B6813F4801F62D0434A936843EA53
:104FCC000E0393604B6813F4001F5FD03E4AD36806
:104FDC0043EA0E03D3604B6813F4003F5CD03A4AAB
:104FEC00536843EA0E0353604B6813F4803F59D067
:104FFC00354A136843EA0E0313600CF1010C0B687D
:10500C0033FA0CF254D0012202FA0CF203EA020E2B
:10501C0032EA0303F1D14B68122B3FF64EAF122B41
:10502C003FF66CAF01A555F823F000BFF74E000812
:10503C00074F0008894F00089B4F0008094F0008D4
:10504C00094F0008094F0008094F0008094F0008D4
:10505C00094F0008094F0008094F0008094F0008C4
:10506C00094F0008094F0008094F0008094F0008B4
:10507C00834F00088F4F0008012394E7022392E727
:10508C00114A936823EA0E0393609BE70E4AD36898
:10509C0023EA0E03D3609EE70B4A536823EA0E0300
:1050AC005360A1E7084A136823EA0E031360A4E7D0
:1050BC0002B070BD00002210000031100010024040
:1050CC0000000140000801400004014000226BE098
:1050DC00032500E0002505FA04F4644542D0FF2BBB
:1050EC005AD886469500DEF800404FF00F0C0CFAAB
:1050FC0005FC24EA0C044FF0040C0CFA05FC44EA01
:10510C000C04CEF80040C46824EA0303C3600132E7
:10511C0031FA02F346D0012393400B40F7D09608A6
:10512C00B51C264C54F8255002F00304A4004FF093
:10513C000F0C0CFA04FE0EEA050C214DA842C9D046
:10514C0005F58065A84209D005F58065A84207D011
:10515C0005F58065A842BBD00425BCE70125BAE75C
:10516C000225B8E7174C256825EA03052560656814
:10517C0025EA03056560E56825EA0305E560A56891
:10518C0025EA0305A5600D4FB41C57F8245025EAF9
:10519C000E0547F82450A2E700F1040EA2F1080511
:1051AC00AD00A0E7F0BD013231FA02F305D00123C6
:1051BC0093400B40F7D0F0B5B1E7704700000140C9
:1051CC0000080140000401400AB101617047090464
:1051DC0001617047C36801EA030221EA030141EA55
:1051EC0002410161704730B40124056CAC40C56BC1
:1051FC006C60046863604368102B05D00368996089
:10520C000368DA6030BC704703689A600368D96041
:10521C00F8E7000050B310B402460168144B0B447D
:10522C001448A0FB03031B099B001364124BD363AC
:10523C00022382F8213008686FF30D1053689468CC
:10524C002343D46823431469234354692343946947
:10525C002343D469234303430B6000209063012351
:10526C0082F8213082F8200010BC70470120704772
:10527C00F8FFFDBFCDCCCCCC00000240002829D0DB
:10528C0010B4034601680A6822F001020A60026841
:10529C00002010601A6850601A6890601A68D0601C
:1052AC0019680D4A0A440D49A1FB02121209920019
:1052BC001A640B4CDC63012101FA02F26260986201
:1052CC00D86218635863986383F8210083F8200030
:1052DC0010BC704701207047F8FFFDBFCDCCCCCC83
:1052EC000000024038B5044690F82000012832D066
:1052FC00012084F8200094F82100C0B2012804D0C9
:10530C00002384F82030022038BD022084F82100CC
:10531C000020A0632568286820F001002860204642
:10532C00FFF761FFE36A5BB12268136843F00E0379
:10533C0013602268136843F0010313600020E3E755
:10534C002268136823F0040313602268136843F087
:10535C000A031360EDE70220D6E7000008B590F8C9
:10536C002130DBB2022B03D004238363012008BD60
:10537C000268136823F00E0313600268136823F0AD
:10538C00010313600368194A934214D014329342F8
:10539C001FD0143293421ED0143293421ED01432BA
:1053AC0093421ED01432934202D04FF0807203E02D
:1053BC004FF4801200E001220D4B5A60012380F85B
:1053CC002130002380F82030436B6BB198470020CC
:1053DC00CDE71022F0E74FF48072EDE74FF48052E6
:1053EC00EAE74FF48032E7E70020C0E7080002400C
:1053FC000000024038B5C36B1A6804682568016C5C
:10540C0004238B40134235D015F0040F32D023689F
:10541C0013F0200F03D1236823F0040323600368E7
:10542C00434A934214D01432934218D0143293420C
:10543C0017D01432934217D01432934217D014322F
:10544C00934202D04FF0806203E04FF4800200E000
:10545C000422384B5A60C36A03B1984738BD4022C6
:10546C00F7E74FF48062F4E74FF48042F1E74FF432
:10547C008022EEE702238B4013423CD015F0020F42
:10548C0039D0236813F0200F06D1236823F00A03C8
:10549C002360012380F821300368254A934214D0FD
:1054AC00143293421CD0143293421BD014329342C8
:1054BC001BD0143293421BD01432934202D04FF0C3
:1054CC00007203E04FF4001200E00222194B5A6004
:1054DC00002380F82030836A002BBFD09847BDE7AB
:1054EC002022F3E74FF40072F0E74FF40052EDE79F
:1054FC004FF40032EAE708238B401342AED015F08C
:10550C00080FABD0236823F00E032360026CC16B31
:10551C00012303FA02F24A60836380F821300023EE
:10552C0080F82030036B002B98D0984796E700BF8B
:10553C000800024000000240002808DB0901C9B243
:10554C0000F1604000F5614080F80013704700F0F6
:10555C000F000901C9B2014B1954704714ED00E05A
:10556C0000B500F00700C0F1070CBCF1040F28BF18
:10557C004FF0040C031D062B0FD9C31E4FF0FF3E3A
:10558C000EFA0CF021EA000199400EFA03FE22EA11
:10559C000E0241EA02005DF804FB0023EEE7000076
:1055AC00074AD36823F4E0631B041B0C000200F4CD
:1055BC00E060034343F0BF6343F40033D3607047B0
:1055CC0000ED00E010B50446054BD868C0F302208E
:1055DC00FFF7C6FF01462046FFF7AEFF10BD00BF28
:1055EC0000ED00E0002807DB00F01F02400901235A
:1055FC009340024A42F82030704700BF00E100E0BF
:10560C000138B0F1807F0BD24FF0E0235861054A8E
:10561C00F02182F823100020986107221A6170474C
:10562C000120704700ED00E0026802F10C0353E822
:10563C00003F23F0C0030C3242E800310029F3D1C3
:10564C00202380F841307047026802F10C0353E8C4
:10565C00003F23F490730C3242E800310029F3D15F
:10566C00026802F1140353E8003F23F001031432E3
:10567C0042E800310029F3D1036B012B05D0202324
:10568C0080F84230002303637047026802F10C0378
:10569C0053E8003F23F010030C3242E8003100299C
:1056AC00F3D1ECE710B504460268136923F44053B8
:1056BC00C1680B43136183680269134342691A433F
:1056CC000168CB6823F4B05323F00C031343CB6075
:1056DC000268536923F4407381690B435361026878
:1056EC00134B9A4220D0FFF737FB024602EB8202A3
:1056FC0002EB820263689B00B2FBF3F20D48A0FB45
:10570C0002314909642303FB11231B013233A0FB33
:10571C0003035B0903F0F00202EB011203F00F0329
:10572C00216813448B6010BDFFF726FB0246DDE7B2
:10573C00003801401F85EB512DE9F84305460F4613
:10574C0016469946DDF820802B681C6837EA04045D
:10575C000CBF01240024B4422DD1B8F1FF3FF3D08B
:10576C00B8F1000F05D0FEF7D9FFA0EB09004045BA
:10577C00EAD92A6802F10C0353E8003F23F4D073F2
:10578C000C3242E800310029F3D12A6802F11403EB
:10579C0053E8003F23F00103143242E800310029A2
:1057AC00F3D1202385F8413085F84230002385F869
:1057BC004030032000E00020BDE8F88360B310B552
:1057CC00044690F8413013B3242384F84130226806
:1057DC00D36823F40053D3602046FFF763FF22689D
:1057EC00136923F4904313612268536923F02A034D
:1057FC0053612268D36843F40053D3600020606483
:10580C00202384F8413084F84230606310BD80F866
:10581C004030FEF735F9D7E701207047B0B110B52D
:10582C000446242380F841300268D36823F40053E3
:10583C00D360FEF779F90020606484F8410084F8A5
:10584C0042002063606384F8400010BD0120704763
:10585C002DE9F04182B01E4690F84130DBB2202B8E
:10586C004BD104460D46904600294AD00AB9012076
:10587C0044E000234364212380F84130FEF74EFFBF
:10588C000746A4F82480A4F82680A368B3F5805FAB
:10589C0002D04FF000080FE02369FBB14FF0000875
:1058AC000AE038F8023B2268C3F308035360E28C29
:1058BC0092B2013A92B2E284E38C9BB28BB1009625
:1058CC003B46002280212046FFF736FFD8B9002D39
:1058DC00E7D015F8012B23685A60E8E7A8460025A5
:1058EC00EAE700963B46002240212046FFF724FFC2
:1058FC0058B9202384F8413000E0022002B0BDE802
:10590C00F0810120FAE70320F8E70320F6E72DE900
:10591C00F04182B01E4690F84230DBB2202B53D1BE
:10592C0004460D469046002952D00AB901204CE09D
:10593C0000234364222280F842200363FEF7EEFE2C
:10594C000746A4F82C80A4F82E80A368B3F5805FDA
:10595C0002D04FF0000817E0236913B14FF0000894
:10596C0012E0A84600250FE023685B68C3F3080328
:10597C0028F8023B03E023685B682B700135E28D4D
:10598C0092B2013A92B2E285E38D9BB2BBB1009622
:10599C003B46002220212046FFF7CEFED0B9002D39
:1059AC00E2D0A368B3F5805FE5D013B92369002B6F
:1059BC00E1D023685B6803F07F032B70DEE72023C4
:1059CC0084F84230002000E0022002B0BDE8F081F3
:1059DC000120FAE70320F8E77047704710B5446AD6
:1059EC0023685A6994F84130DBB2212B10D023681C
:1059FC005A6902F0400294F84230DBB2222B11D0EB
:105A0C00636C43F0100363642046FFF7E6FF10BDA0
:105A1C0002F08002002AEAD00023E3842046FFF73C
:105A2C0003FEE4E7002AEBD00023E3852046FFF7D2
:105A3C000BFEE5E77047000038B50446226802F11A
:105A4C000C0353E8003F23F4F0730C3242E80031AE
:105A5C000029F3D1226802F1140353E8003F23F02C
:105A6C000103143242E800310029F3D1236B012BDE
:105A7C002ED0A36B33B12268526912F0800F34D050
:105A8C00344A5A63E36B33B12268526912F0400F07
:105A9C002ED0314A5A6323685B6913F0800F2AD0E9
:105AAC00216801F1140353E8003F23F08003143103
:105ABC0041E800321546002AF2D1A06B002842D0F2
:105ACC00FFF74CFCC0B1A36B00225A63012513E015
